:020000040800F2
:1000000000280020C90B00086D0B0008730B0008C6
:10001000790B00087F0B0008850B0008000000002A
:100020000000000000000000000000008B0B000832
:10003000970B000800000000A30B0008AF0B00089E
:10004000110C0008110C0008110C0008110C00081C
:10005000110C0008110C0008110C0008110C00080C
:10006000110C0008110C0008110C0008110C0008FC
:10007000110C0008110C0008110C0008110C0008EC
:10008000110C0008110C0008110C0008110C0008DC
:10009000110C0008110C0008110C0008110C0008CC
:1000A000110C0008110C0008110C0008110C0008BC
:1000B000110C0008110C000800000000110C0008D1
:1000C000110C00080000000000000000110C0008E6
:1000D00000000000110C0008110C000800000000D6
:1000E000110C0008110C0008110C000800000000A1
:1000F0000000000000000000000000000000000000
:0C01000000000000000000005FF808F1A3
:10010C0010B5054C237833B9044B13B10448AFF345
:10011C0000800123237010BD0C00002000000000A3
:10012C00501A000808B5034B1BB103490348AFF341
:10013C00008008BD0000000010000020501A0008CC
:10014C0080B582B000AF7860C7F800C07B68092B1F
:10015C0000F2808101A252F823F000BF9101000847
:10016C00D90100082102000869020008B102000848
:10017C00F90200084103000889030008D1030008B4
:10018C001904000800220121B54801F021F80022D1
:10019C000221B34801F01CF800220421B04801F000
:1001AC0017F800220821AE4801F012F800221021A5
:1001BC00AB4801F00DF800222021A94801F008F805
:1001CC0001224021A64801F003F844E1012201215B
:1001DC00A34800F0FDFF00220221A14800F0F8FF27
:1001EC00002204219E4800F0F3FF012208219C48C4
:1001FC0000F0EEFF01221021994800F0E9FF0122E6
:10020C002021974800F0E4FF01224021944800F09F
:10021C00DFFF20E100220121914800F0D9FF0022EC
:10022C0002218F4800F0D4FF012204218C4800F0F9
:10023C00CFFF002208218A4800F0CAFF00221021BB
:10024C00874800F0C5FF01222021854800F0C0FF3F
:10025C0000224021824800F0BBFFFCE0002201217B
:10026C007F4800F0B5FF002202217D4800F0B0FF6E
:10027C00002204217A4800F0ABFF002208217848C4
:10028C0000F0A6FF01221021754800F0A1FF012209
:10029C002021734800F09CFF00224021704800F0A0
:1002AC0097FFD8E0012201216D4800F091FF002258
:1002BC0002216B4800F08CFF00220421684800F0FA
:1002CC0087FF01220821664800F082FF01221021DD
:1002DC00634800F07DFF00222021614800F078FF88
:1002EC00002240215E4800F073FFB4E0002201219F
:1002FC005B4800F06DFF01220221594800F068FFB5
:10030C0000220421564800F063FF002208215448C3
:10031C0000F05EFF01221021514800F059FF00222D
:10032C0020214F4800F054FF002240214C4800F09F
:10033C004FFF90E000220121494800F049FF0122C3
:10034C000221474800F044FF00220421444800F0F9
:10035C003FFF00220821424800F03AFF0022102102
:10036C003F4800F035FF002220213D4800F030FFCF
:10037C00002240213A4800F02BFF6CE000220121C2
:10038C00374800F025FF00220221354800F020FFFD
:10039C0000220421324800F01BFF012208213048C2
:1003AC0000F016FF012210212D4800F011FF012250
:1003BC0020212B4800F00CFF01224021284800F09E
:1003CC0007FF48E000220121254800F001FF002230
:1003DC000221234800F0FCFE00220421204800F0FA
:1003EC00F7FE002208211E4800F0F2FE0022102128
:1003FC001B4800F0EDFE00222021194800F0E8FE19
:10040C0000224021164800F0E3FE24E000220121E6
:10041C00134800F0DDFE00220221114800F0D8FE46
:10042C00002204210E4800F0D3FE002208210C48C3
:10043C0000F0CEFE01221021094800F0C9FE002276
:10044C002021074800F0C4FE00224021044800F09F
:10045C00BFFE00E000BF00BF0837BD4680BD00BF37
:10046C00000C014080B586B000AF07F120033B6063
:10047C0000F0CAFB00F0AAFA00F0E4FA0A237B6150
:10048C000C233B610523FB600323BB6000237B60D3
:10049C007B690C2B37D07B690C2B50DC7B690A2BCE
:1004AC0003D07B690B2B17D049E000222021684830
:1004BC0000F08EFE01224021654800F089FE0122E9
:1004CC008021634800F084FEFB68002B32DC0323A0
:1004DC00FB600C237B612DE0012220215C4800F0A5
:1004EC0077FE002240215A4800F072FE0122802142
:1004FC00574800F06DFEFB68002B1DDC0523FB60EC
:10050C000A237B6118E001222021514800F060FE93
:10051C00012240214E4800F05BFE002280214C4815
:10052C0000F056FEFB68002B08DC0223FB600B235B
:10053C007B6103E000BF02E000BF00E000BF3B694D
:10054C000C2B3DD03B690C2B59DC3B690A2B03D09F
:10055C003B690B2B1AD052E000224FF480713C48BF
:10056C0000F036FE01224FF40071394800F030FEE5
:10057C0001224FF48061364800F02AFEBB68002B44
:10058C0038DC0323BB600C233B6133E001224FF4C6
:10059C0080712F4800F01CFE00224FF400712C4893
:1005AC0000F016FE01224FF48061294800F010FE85
:1005BC00BB68002B20DC0523BB600A233B611BE0DE
:1005CC0001224FF48071224800F002FE01224FF408
:1005DC0000711F4800F0FCFD00224FF480611C48A4
:1005EC0000F0F6FDBB68002B08DC0223BB600B237C
:1005FC003B6103E000BF02E000BF00E000BFFB680E
:10060C00013B3A4694461846FFF79AFD00224FF4F8
:10061C0080410F4800F0DCFDBB68013B3A46944634
:10062C00184600F017F800224FF40041084800F07B
:10063C00CFFD1021064800F0E3FD4FF47A7000F076
:10064C0045FBFB68013BFB60BB68013BBB601FE7E4
:10065C000008014080B582B000AF7860C7F800C0D8
:10066C007B68092B00F2A88101A252F823F000BF8D
:10067C00A5060008F50600084507000895070008C0
:10068C00E50700083508000885080008D5080008AB
:10069C00250900087509000800224FF48071C9482B
:1006AC0000F096FD00220221C74800F091FD0022C7
:1006BC000421C54800F08CFD00220821C24800F03E
:1006CC0087FD00224FF40061BF4800F081FD00223D
:1006DC004FF48051BC4800F07BFD01224FF40051D7
:1006EC00B94800F075FD68E101224FF48071B548FE
:1006FC0000F06EFD00220221B34800F069FD0022DB
:10070C000421B14800F064FD01220821AE4800F03C
:10071C005FFD01224FF40061AB4800F059FD01224E
:10072C004FF48051A84800F053FD01224FF40051C2
:10073C00A54800F04DFD40E100224FF48071A14826
:10074C0000F046FD002202219F4800F041FD0122ED
:10075C0004219D4800F03CFD002208219A4800F03D
:10076C0037FD00224FF40061974800F031FD012263
:10077C004FF48051944800F02BFD00224FF40051AF
:10078C00914800F025FD18E100224FF480718D484E
:10079C0000F01EFD002202218B4800F019FD002202
:1007AC000421894800F014FD00220821864800F03D
:1007BC000FFD01224FF40061834800F009FD012276
:1007CC004FF48051804800F003FD00224FF400519B
:1007DC007D4800F0FDFCF0E001224FF48071794877
:1007EC0000F0F6FC00220221774800F0F1FC002218
:1007FC000421754800F0ECFC01220821724800F03D
:10080C00E7FC01224FF400616F4800F0E1FC00228C
:10081C004FF480516C4800F0DBFC00224FF4005187
:10082C00694800F0D5FCC8E000224FF4807165489F
:10083C0000F0CEFC01220221634800F0C9FC00222A
:10084C000421614800F0C4FC002208215E4800F03D
:10085C00BFFC01224FF400615B4800F0B9FC0022A0
:10086C004FF48051584800F0B3FC00224FF4005173
:10087C00554800F0ADFCA0E000224FF480715148C7
:10088C0000F0A6FC012202214F4800F0A1FC00223E
:10089C0004214D4800F09CFC002208214A4800F03D
:1008AC0097FC00224FF40061474800F091FC0022B5
:1008BC004FF48051444800F08BFC00224FF400515F
:1008CC00414800F085FC78E000224FF480713D48EF
:1008DC0000F07EFC002202213B4800F079FC002253
:1008EC000421394800F074FC01220821364800F03C
:1008FC006FFC01224FF40061334800F069FC0122C7
:10090C004FF48051304800F063FC01224FF4005149
:10091C002D4800F05DFC50E000224FF48071294816
:10092C0000F056FC00220221274800F051FC002266
:10093C000421254800F04CFC00220821224800F03C
:10094C0047FC00224FF400611F4800F041FC0022DC
:10095C004FF480511C4800F03BFC00224FF4005136
:10096C00194800F035FC28E000224FF4807115483E
:10097C0000F02EFC00220221134800F029FC00227A
:10098C000421114800F024FC002208210E4800F03C
:10099C001FFC01224FF400610B4800F019FC0022EF
:1009AC004FF48051084800F013FC00224FF4005122
:1009BC00054800F00DFC00E000BF00BF0837BD4645
:1009CC0080BD00BF000C01400008014080B590B014
:1009DC0000AF07F1180328220021184601F02AF86D
:1009EC003B1D00221A605A609A60DA601A61022379
:1009FC00BB610123BB621023FB6200237B6307F105
:100A0C001803184600F016FC0346002B01D000F02A
:100A1C006FF80F237B600023BB600023FB60002377
:100A2C003B6100237B613B1D0021184600F082FED8
:100A3C000346002B01D000F05BF800BF4037BD46E9
:100A4C0080BD000080B586B000AF07F1080300221E
:100A5C001A605A609A60DA60224B9B69214A43F013
:100A6C00040393611F4B9B6903F004037B607B6859
:100A7C001C4B9B691B4A43F008039361194B9B6900
:100A8C0003F008033B603B6800224FF6FE711648EA
:100A9C0000F09EFB002240F27F11144800F098FBFE
:100AAC004FF6FE73BB600123FB6000233B61022306
:100ABC007B6107F1080319460B4800F00FFA40F26E
:100ACC007F13BB600123FB6000233B6102237B612E
:100ADC0007F108031946054800F000FA00BF183763
:100AEC00BD4680BD0010024000080140000C0140D2
:100AFC0080B400AF72B600BFFEE7000080B485B0D2
:100B0C0000AF154B9B69144A43F001039361124BE0
:100B1C009B6903F00103BB60BB680F4BDB690E4A9A
:100B2C0043F08053D3610C4BDB6903F080537B6043
:100B3C007B680A4B5B68FB60FB6823F0E063FB603F
:100B4C00FB6843F08063FB60044AFB68536000BFA2
:100B5C001437BD4680BC70470010024000000140B5
:100B6C0080B400AFFEE780B400AFFEE780B400AF06
:100B7C00FEE780B400AFFEE780B400AFFEE780B4C0
:100B8C0000AF00BFBD4680BC704780B400AF00BF53
:100B9C00BD4680BC704780B400AF00BFBD4680BC72
:100BAC00704780B500AF00F075F800BF80BD80B411
:100BBC0000AF00BFBD4680BC70470000FFF7F7FFD9
:100BCC000B480C490C4A002302E0D458C45004339F
:100BDC00C4188C42F9D3094A094C002301E0136074
:100BEC000432A242FBD300F001FFFFF73BFC70473D
:100BFC00000000200C000020941A00080C000020BB
:100C0C002C000020FEE7000080B500AF084B1B68ED
:100C1C00074A43F010031360032000F02BF90F2058
:100C2C0000F008F8FFF76AFF0023184680BD00BFEC
:100C3C000020024080B582B000AF7860124B1A6879
:100C4C00124B1B7819464FF47A73B3FBF1F3B2FBDA
:100C5C00F3F3184600F035F90346002B01D00123BD
:100C6C000EE07B680F2B0AD8002279684FF0FF301A
:100C7C0000F00BF9064A7B681360002300E00123A7
:100C8C0018460837BD4680BD000000200800002033
:100C9C000400002080B400AF054B1B781A46054BAE
:100CAC001B681344034A136000BFBD4680BC7047E9
:100CBC00080000202800002080B400AF024B1B6805
:100CCC001846BD4680BC70472800002080B584B013
:100CDC0000AF7860FFF7F0FFB8607B68FB60FB68E3
:100CEC00B3F1FF3F05D00A4B1B781A46FB6813443F
:100CFC00FB6000BFFFF7E0FF0246BB68D31AFA683F
:100D0C009A42F7D800BF00BF1037BD4680BD00BF68
:100D1C000800002080B485B000AF78607B6803F0D9
:100D2C000703FB600C4BDB68BB60BA684FF6FF0334
:100D3C001340BB60FB681A02BB68134343F0BF63EC
:100D4C0043F40033BB60044ABB68D36000BF143764
:100D5C00BD4680BC704700BF00ED00E080B400AF22
:100D6C00044BDB681B0A03F007031846BD4680BC26
:100D7C00704700BF00ED00E080B483B000AF0346C5
:100D8C003960FB7197F90730002B0ADB3B68DAB24C
:100D9C000C4997F907301201D2B20B4483F80023A7
:100DAC000AE03B68DAB20849FB7903F00F03043B15
:100DBC001201D2B20B441A7600BF0C37BD4680BC70
:100DCC00704700BF00E100E000ED00E080B489B0A6
:100DDC0000AFF860B9607A60FB6803F00703FB6151
:100DEC00FB69C3F10703042B28BF0423BB61FB6918
:100DFC000433062B02D9FB69033B00E000237B6123
:100E0C004FF0FF32BB6902FA03F3DA43BB681A40B6
:100E1C007B699A404FF0FF317B6901FA03F3D943A8
:100E2C007B680B40134318462437BD4680BC704783
:100E3C0080B582B000AF78607B68013BB3F1807FF6
:100E4C0001D301230FE00A4A7B68013B53600F2159
:100E5C004FF0FF30FFF790FF054B00229A60044BD8
:100E6C0007221A60002318460837BD4680BD00BF14
:100E7C0010E000E080B582B000AF78607868FFF7D2
:100E8C0049FF00BF0837BD4680BD80B586B000AFB6
:100E9C000346B9607A60FB7300237B61FFF75EFF4A
:100EAC0078617A68B9687869FFF790FF024697F91C
:100EBC000F3011461846FFF75FFF00BF1837BD46CD
:100ECC0080BD80B582B000AF78607868FFF7B0FF66
:100EDC00034618460837BD4680BD000080B48BB071
:100EEC0000AF7860396000237B6200233B6248E1ED
:100EFC0001227B6A02FA03F3FB613B681B68FA6907
:100F0C001340BB61BA69FB699A4240F037813B6878
:100F1C005B68A34A93425ED0A14A934275D8A14A1A
:100F2C00934258D09F4A93426FD89F4A934252D0D3
:100F3C009D4A934269D89D4A93424CD09B4A934216
:100F4C0063D89B4A934246D0994A93425DD8122B60
:100F5C002AD8122B59D801A252F823F0E30F00081B
:100F6C00BD0F0008CF0F0008111000081710000863
:100F7C0017100008171000081710000817100008A9
:100F8C001710000817100008171000081710000899
:100F9C001710000817100008171000081710000889
:100FAC00C50F0008D90F0008824A934213D02CE0D9
:100FBC003B68DB683B6229E03B68DB6804333B62DF
:100FCC0024E03B68DB6808333B621FE03B68DB686E
:100FDC000C333B621AE03B689B68002B02D1042364
:100FEC003B6213E03B689B68012B05D108233B62F5
:100FFC007B68FA691A6109E008233B627B68FA692D
:10100C005A6103E000233B6200E000BFBB69FF2B89
:10101C0001D87B6801E07B6804337B61BB69FF2BE3
:10102C0002D87B6A9B0002E07B6A083B9B003B6119
:10103C007B691A680F213B6901FA03F3DB431A4001
:10104C00396A3B6901FA03F31A437B691A603B68FE
:10105C005B6803F08053002B00F09080564B9B692B
:10106C00554A43F001039361534B9B6903F0010311
:10107C00BB60BB68514A7B6A9B08023352F8233031
:10108C00FB607B6A03F003039B000F2202FA03F35D
:10109C00DB43FA681340FB607B68494A93420DD0EE
:1010AC007B68484A934207D07B68474A934201D1F8
:1010BC00022304E0032302E0012300E000237A6A08
:1010CC0002F0030292009340FA681343FB603B4921
:1010DC007B6A9B080233FA6841F823203B685B6803
:1010EC0003F48013002B06D0384B9A683749BB6940
:1010FC0013438B6006E0354B9A68BB69DB4333497D
:10110C0013408B603B685B6803F40013002B06D024
:10111C002E4BDA682D49BB691343CB6006E02B4B91
:10112C00DA68BB69DB4329491340CB603B685B68D9
:10113C0003F40033002B06D0244B5A682349BB69B7
:10114C0013434B6006E0214B5A68BB69DB431F49D4
:10115C0013404B603B685B6803F48033002B06D074
:10116C001A4B1A681949BB6913430B6006E0174BFD
:10117C001A68BB69DB43154913400B607B6A01336A
:10118C007B623B681A687B6A22FA03F3002B7FF4BC
:10119C00AFAE00BF00BF2C37BD4680BC704700BF50
:1011AC00000032100000311000002210000021104D
:1011BC00000012100000111000100240000001404D
:1011CC0000080140000C01400010014000040140E7
:1011DC0080B483B000AF78600B467B8013467B7085
:1011EC007B78002B03D07A887B681A6103E07B88BC
:1011FC001A047B681A6100BF0C37BD4680BC70476F
:10120C0080B485B000AF78600B467B807B68DB6870
:10121C00FB607A88FB6813401A04FB68D9437B880F
:10122C000B401A437B681A6100BF1437BD4680BC63
:10123C007047000080B586B000AF78607B68002BEB
:10124C0001D101236CE27B681B6803F00103002BC6
:10125C0000F08780924B5B6803F00C03042B0CD0DE
:10126C008F4B5B6803F00C03082B12D18C4B5B6823
:10127C0003F48033B3F5803F0BD1894B1B6803F427
:10128C000033002B6CD07B685B68002B68D101238A
:10129C0046E27B685B68B3F5803F06D1804B1B68E8
:1012AC007F4A43F4803313602EE07B685B68002B2D
:1012BC000CD17B4B1B687A4A23F480331360784B38
:1012CC001B68774A23F4802313601DE07B685B68FE
:1012DC00B3F5A02F0CD1724B1B68714A43F48023D9
:1012EC0013606F4B1B686E4A43F4803313600BE042
:1012FC006B4B1B686A4A23F480331360684B1B6882
:10130C00674A23F4802313607B685B68002B13D03F
:10131C00FFF7D2FC386108E0FFF7CEFC02463B69D0
:10132C00D31A642B01D90323FAE15D4B1B6803F438
:10133C000033002BF0D014E0FFF7BEFC386108E05E
:10134C00FFF7BAFC02463B69D31A642B01D903237D
:10135C00E6E1534B1B6803F40033002BF0D100E0A3
:10136C0000BF7B681B6803F00203002B63D04C4B5F
:10137C005B6803F00C03002B0BD0494B5B6803F04C
:10138C000C03082B1CD1464B5B6803F48033002BF9
:10139C0016D1434B1B6803F00203002B05D07B686E
:1013AC001B69012B01D00123BAE13D4B1B6823F0D3
:1013BC00F8027B685B69DB00394913430B603AE048
:1013CC007B681B69002B20D0364B01221A60FFF77B
:1013DC0073FC386108E0FFF76FFC02463B69D31AD7
:1013EC00022B01D903239BE12D4B1B6803F0020355
:1013FC00002BF0D02A4B1B6823F0F8027B685B694A
:10140C00DB00274913430B6015E0264B00221A60C2
:10141C00FFF752FC386108E0FFF74EFC02463B69CF
:10142C00D31A022B01D903237AE11D4B1B6803F05D
:10143C000203002BF0D17B681B6803F00803002B20
:10144C003AD07B689B69002B19D0174B01221A608C
:10145C00FFF732FC386108E0FFF72EFC02463B69CF
:10146C00D31A022B01D903235AE10D4B5B6A03F00B
:10147C000203002BF0D0012000F09AFA1CE00A4B7A
:10148C0000221A60FFF718FC38610FE0FFF714FC1C
:10149C0002463B69D31A022B08D9032340E100BF53
:1014AC000010024000004242800442429E4B5B6AA4
:1014BC0003F00203002BE9D17B681B6803F00403E3
:1014CC00002B00F0A6800023FB75974BDB6903F023
:1014DC008053002B0DD1944BDB69934A43F080531E
:1014EC00D361914BDB6903F08053BB60BB68012374
:1014FC00FB758E4B1B6803F48073002B18D18B4B40
:10150C001B688A4A43F480731360FFF7D5FB38617C
:10151C0008E0FFF7D1FB02463B69D31A642B01D9D3
:10152C000323FDE0814B1B6803F48073002BF0D088
:10153C007B68DB68012B06D17B4B1B6A7A4A43F034
:10154C00010313622DE07B68DB68002B0CD1764B1A
:10155C001B6A754A23F001031362734B1B6A724AB0
:10156C0023F0040313621CE07B68DB68052B0CD1B1
:10157C006D4B1B6A6C4A43F0040313626A4B1B6A83
:10158C00694A43F0010313620BE0674B1B6A664A1E
:10159C0023F001031362644B1B6A634A23F00403B8
:1015AC0013627B68DB68002B15D0FFF785FB386175
:1015BC000AE0FFF781FB02463B69D31A41F28832FD
:1015CC00934201D90323ABE0574B1B6A03F0020390
:1015DC00002BEED014E0FFF76FFB38610AE0FFF749
:1015EC006BFB02463B69D31A41F28832934201D914
:1015FC00032395E04C4B1B6A03F00203002BEED146
:10160C00FB7D012B05D1484BDB69474A23F0805306
:10161C00D3617B68DB69002B00F08180424B5B68F7
:10162C0003F00C03082B61D07B68DB69022B46D1DD
:10163C003F4B00221A60FFF73FFB386108E0FFF7D1
:10164C003BFB02463B69D31A022B01D9032367E00B
:10165C00354B1B6803F00073002BF0D17B681B6AC1
:10166C00B3F5803F08D1304B5B6823F400327B68C4
:10167C009B682D4913434B602B4B5B6823F474120E
:10168C007B68196A7B685B6A0B43274913434B6081
:10169C00274B01221A60FFF70FFB386108E0FFF7B8
:1016AC000BFB02463B69D31A022B01D9032337E00B
:1016BC001D4B1B6803F00073002BF0D02FE01C4B6C
:1016CC0000221A60FFF7F8FA386108E0FFF7F4FA25
:1016DC0002463B69D31A022B01D9032320E0124B9B
:1016EC001B6803F00073002BF0D118E07B68DB69FA
:1016FC00012B01D1012313E00B4B5B68FB60FB68F2
:10170C0003F480327B681B6A9A4206D1FB6803F4AF
:10171C0070127B685B6A9A4201D0012300E00023BF
:10172C0018461837BD4680BD0010024000700040BE
:10173C006000424280B584B000AF786039607B684D
:10174C00002B01D10123D0E06A4B1B6803F0070387
:10175C003A689A4210D9674B1B6823F00702654917
:10176C003B6813430B60634B1B6803F007033A6839
:10177C009A4201D00123B8E07B681B6803F0020396
:10178C00002B20D07B681B6803F00403002B05D0D2
:10179C00594B5B68584A43F4E06353607B681B68A1
:1017AC0003F00803002B05D0534B5B68524A43F4FB
:1017BC0060535360504B5B6823F0F0027B689B686E
:1017CC004D4913434B607B681B6803F00103002BEE
:1017DC0040D07B685B68012B07D1474B1B6803F437
:1017EC000033002B15D101237FE07B685B68022B53
:1017FC0007D1414B1B6803F00073002B09D1012367
:10180C0073E03D4B1B6803F00203002B01D1012355
:10181C006BE0394B5B6823F003027B685B683649ED
:10182C0013434B60FFF748FAF8600AE0FFF744FAFD
:10183C000246FB68D31A41F28832934201D9032342
:10184C0053E02D4B5B6803F00C027B685B689B00DC
:10185C009A42EBD1274B1B6803F007033A689A4274
:10186C0010D2244B1B6823F0070222493B68134318
:10187C000B60204B1B6803F007033A689A4201D0B7
:10188C00012332E07B681B6803F00403002B08D0B3
:10189C00194B5B6823F4E0627B68DB6816491343E1
:1018AC004B607B681B6803F00803002B09D0124BBC
:1018BC005B6823F460527B681B69DB000E491343A1
:1018CC004B6000F021F802460B4B5B681B0903F0E0
:1018DC000F030A49CB5C22FA03F3094A1360094B44
:1018EC001B681846FFF7A6F9002318461037BD46AB
:1018FC0080BD00BF0020024000100240681A0008A2
:10190C00000000200400002080B487B000AF00234A
:10191C00FB600023BB6000237B6100237B60002302
:10192C003B611E4B5B68FB60FB6803F00C03042BF4
:10193C0002D0082B03D027E0194B3B6127E0FB6852
:10194C009B0C03F00F03174AD35C7B60FB6803F41A
:10195C008033002B10D0114B5B685B0C03F0010340
:10196C00114AD35CBB607B680D4A02FB03F2BB6877
:10197C00B2FBF3F37B6104E07B680C4A02FB03F3DC
:10198C007B617B693B6102E0054B3B6100BF3B69BE
:10199C0018461C37BD4680BC704700BF0010024083
:1019AC0000127A00781A0008881A000800093D0015
:1019BC0080B485B000AF78600A4B1B680A4AA2FB62
:1019CC0003235B0A7A6802FB03F3FB6000BFFB682E
:1019DC005A1EFA60002BF9D100BF00BF1437BD4668
:1019EC0080BC704700000020D34D621070B50026FB
:1019FC000C4D0D4C641BA410A64209D100F022F82A
:101A0C0000260A4D0A4C641BA410A64205D170BDD9
:101A1C0055F8043B98470136EEE755F8043B9847D8
:101A2C000136F2E78C1A00088C1A00088C1A000890
:101A3C00901A000803460244934200D1704703F801
:101A4C00011BF9E7F8B500BFF8BC08BC9E4670470F
:0C1A5C00F8B500BFF8BC08BC9E467047FF
:101A68000000000000000000010203040607080946
:101A780002030405060708090A0B0C0D0E0F1010C7
:041A88000102000057
:041A8C00310100081C
:041A90000D0100083C
:0C1A940000127A001000000001000000A9
:0400000508000BC91B
:00000001FF
